:100000000C9435000C945D000C945D000C945D0024
:100010000C945D000C945D000C945D000C945D00EC
:100020000C945D000C945D000C945D000C946002D7
:100030000C945D000C945D000C945D000C945D00CC
:100040000C94BE010C945D000C942E020C940802DA
:100050000C945D000C945D000C945D000C945D00AC
:100060000C945D000C945D00D50211241FBECFEFEF
:10007000D8E0DEBFCDBF11E0A0E0B1E0E8E4F8E0F9
:1000800002C005900D92A438B107D9F722E0A4E888
:10009000B1E001C01D92A933B207E1F710E0C5E35A
:1000A000D0E004C02197FE010E941704C433D10799
:1000B000C9F70E9417030C9422040C940000CF92FD
:1000C000DF92EF92FF920F931F93CF93DF936C0118
:1000D0007A018B01C0E0D0E0CE15DF0589F0D801B0
:1000E0006D918D01D601ED91FC910190F081E02D93
:1000F000C6010995892B11F47E0102C02196ECCF2F
:10010000C701DF91CF911F910F91FF90EF90DF908A
:10011000CF900895089580E090E00895FC01538DFC
:10012000448D252F30E0842F90E0821B930B5417D1
:1001300010F0CF96089501970895FC01918D828D5E
:10014000981761F0828DDF01A80FB11D5D968C912B
:10015000928D9F5F9F73928F90E008958FEF9FEF36
:100160000895FC01918D828D981731F0828DE80FF2
:10017000F11D858D90E008958FEF9FEF0895FC01AC
:10018000918D228D892F90E0805C9F4F821B910979
:100190008F739927089582E991E00E94BF0021E0C2
:1001A000892B09F420E0822F0895FC01848DDF0162
:1001B000A80FB11DA35ABF4F2C91848D90E00196DA
:1001C0008F739927848FA689B7892C93A089B189C9
:1001D0008C9180648C93938D848D981306C00288D3
:1001E000F389E02D80818F7D80830895EF92FF92C7
:1001F0000F931F93CF93DF93EC0181E0888F9B8D4A
:100200008C8D981305C0E889F989808185FD24C00B
:10021000F62E0B8D10E00F5F1F4F0F731127E02E8E
:100220008C8DE8120CC00FB607FCFACFE889F9896B
:10023000808185FFF5CFCE010E94D500F1CF8B8D57
:10024000FE01E80FF11DE35AFF4FF0820B8FEA89A0
:10025000FB898081806207C0EE89FF896083E8891D
:10026000F98980818064808381E090E0DF91CF9183
:100270001F910F91FF90EF900895CF93DF93EC01C2
:10028000888D8823C9F0EA89FB89808185FD05C0B6
:10029000A889B9898C9186FD0FC00FB607FCF5CFF0
:1002A000808185FFF2CFA889B9898C9185FFEDCF38
:1002B000CE010E94D500E7CFDF91CF91089580E075
:1002C00090E0892B29F00E94CB0081110C94000052
:1002D0000895009769F0FC0101900020E9F731973B
:1002E000AF01481B590BBC0182E991E00C945F00FF
:1002F00080E090E008958F929F92AF92BF920F930B
:100300001F93CF93DF93CDB7DEB7A1970FB6F894C5
:10031000DEBF0FBECDBF19A2423008F44AE08E0105
:100320000F5D1F4F842E912CA12CB12CA50194019F
:100330000E94F503E62FB901CA0101501109EA3004
:1003400014F4E05D01C0E95CD801EC93232B242B6D
:10035000252B61F7C8010E946901A1960FB6F89498
:10036000DEBF0FBECDBFDF91CF911F910F91BF9028
:10037000AF909F908F9008950E941D041F920F923E
:100380000FB60F9211242F933F938F939F93AF93A8
:10039000BF9380918E0190918F01A0919001B091B7
:1003A000910130918D0123E0230F2D3720F4019628
:1003B000A11DB11D05C026E8230F0296A11DB11D88
:1003C00020938D0180938E0190938F01A0939001D3
:1003D000B09391018091890190918A01A0918B0144
:1003E000B0918C010196A11DB11D8093890190935C
:1003F0008A01A0938B01B0938C01BF91AF919F9123
:100400008F913F912F910F900FBE0F901F901895D5
:100410001F920F920FB60F9211242F933F934F9379
:100420005F936F937F938F939F93AF93BF93EF935C
:10043000FF9382E991E00E94D500FF91EF91BF9177
:10044000AF919F918F917F916F915F914F913F916C
:100450002F910F900FBE0F901F9018951F920F9223
:100460000FB60F9211242F938F939F93EF93FF93C7
:10047000E091A201F091A3018081E091A801F091A7
:10048000A90182FD12C090818091AB018F5F8F73B3
:100490002091AC01821751F0E091AB01F0E0EE56F3
:1004A000FE4F958F8093AB0101C08081FF91EF914A
:1004B0009F918F912F910F900FBE0F901F901895C5
:1004C0001F920F920FB60F9211242F933F935F93B9
:1004D0006F937F938F939F93AF93BF93EF93FF930C
:1004E000809188009091890086509F4F9093890059
:1004F000809388008091860190918701892B49F42F
:100500008091840190918501909387018093860169
:1005100030C0809186019091870160918401709133
:10052000850176956795769567950E94E103892BFD
:1005300001F1E0918601F091870180918401909111
:10054000850123E030E0B9010E94E103E617F707D7
:1005500081F0E0918601F091870180918401909172
:100560008501B9010E94E103660F771FE617F707BF
:1005700019F481E080938801809186019091870130
:1005800001979093870180938601FF91EF91BF912E
:10059000AF919F918F917F916F915F913F912F913B
:1005A0000F900FBE0F901F901895E2E9F1E01382B3
:1005B000128288EE93E0A0E0B0E084839583A68366
:1005C000B78384E691E09183808385EC90E0958702
:1005D000848784EC90E09787868780EC90E0918B0D
:1005E000808B81EC90E0938B828B82EC90E0958BFA
:1005F000848B86EC90E0978B868B118E128E138EF7
:10060000148EEFE2F2E0108280E091E09283818329
:1006100088E191E09483838380E391E096838583EE
:1006200088E491E09087878388E1818708957894B2
:1006300084B5826084BD84B5816084BD85B58260E7
:1006400085BD85B5816085BD80916E008160809398
:100650006E00109281008091810082608093810001
:100660008091810081608093810080918000816011
:10067000809380008091B10084608093B10080916C
:10068000B00081608093B00080917A008460809394
:100690007A0080917A00826080937A0080917A005B
:1006A000816080937A0080917A00806880937A00DC
:1006B0001092C100E091A201F091A301C2E0C083B9
:1006C000E0919E01F0919F011082E091A001F091D4
:1006D000A1018FEC80831092AA01E091A601F09114
:1006E000A70186E08083E091A401F091A5018081BB
:1006F00080618083E091A401F091A50180818860F0
:100700008083E091A401F091A501808180688083BD
:10071000E091A401F091A50180818F7D808382E723
:1007200091E00E9469018EE791E00E946901F894CE
:10073000C093810080916F00826080936F007894F5
:1007400083EB84BD81E085BD8FE787BD88BD559A69
:1007500080EA9FE09093850180938401C0EADFE006
:1007600080918801882351F110928801609186015F
:100770007091870180E090E04AE00E947B0181E86F
:1007800091E00E94690160912F0270E080E090E0AA
:100790004AE00E947B018EE791E00E946901D093BC
:1007A0008501C093840180912F028F5F80932F0277
:1007B00090913802891302C010922F020E945F01AB
:1007C000CFCFAA1BBB1B51E107C0AA1FBB1FA61797
:1007D000B70710F0A61BB70B881F991F5A95A9F7EA
:1007E00080959095BC01CD010895A1E21A2EAA1B17
:1007F000BB1BFD010DC0AA1FBB1FEE1FFF1FA217D1
:10080000B307E407F50720F0A21BB30BE40BF50BCD
:10081000661F771F881F991F1A9469F76095709556
:10082000809590959B01AC01BD01CF010895EE0F1D
:10083000FF1F0590F491E02D099481E090E0F89479
:080840000C942204F894FFCF90
:100848006400006400000000000000000000006474
:100858000064000000000000000000000000C80064
:1008680000000064006400000000F4000000006460
:10087800010000010000010000010000010000016A
:10088800000001000001000000000000000000005E
:100898000000000000000000000000000000000050
:1008A80000000000F6005F008E003D01BF009D00C3
:1008B800B10043617267616E646F2E2E2E000D0ABF
:0408C8000009000023
:00000001FF
