:100000000C94E2030C940A040C940A040C940A0461
:100010000C940A040C940A040C940A040C94AC0684
:100020000C940A040C940A040C940A040C94EA0636
:100030000C940A040C940A040C940A040C940A0408
:100040000C940A060C940A040C947A060C94540638
:100050000C940A040C940A040C940A040C940A04E8
:100060000C940A040C940A04C2B8A49E629960A776
:10007000E3C962F88A0D0BFF4CF88C3321ABD5F045
:100080008ED1C18F6DD981C50076463E3655337A03
:100090003C1E82E747AEF540A1927F25F2C733FCB4
:1000A000D1B06E078B5941C632EB218FEA6FD26C0B
:1000B00070C79135EBEA81EEF75F5863EFFD4A02B6
:1000C0007BE135F95BB00F90720E8DC9165F153567
:1000D00097BDE7190D3A87C267576D26B1C4F0BCCA
:1000E000A55A709D7657C3DCD8D9E222539CD58E91
:1000F000CAF8DCCC4716DF74097218A5D096FEE169
:100100006715752C73C535617C4278D439A0E82E0B
:10011000206FC8852EF561BAF4A7AF18E3E94D2A20
:10012000D8089EDDEB743DD77442A8165FE128CD58
:10013000B21C037C5C51E54E41F08CB78237B44E63
:10014000112B42E875DAB4F6DBD1C8215ED86B24F6
:1001500098F5E5E969A044E7074306BB46F60A05BA
:100160002A78B986AA717077FFFCFAF8F6F4F2F0F3
:10017000EEEBE9E7E5E3E1DFDDDAD9D7D5D3D1D09E
:10018000CECCCAC8C7C5C3C1BFBEBCBAB7B5B3B170
:10019000AFACAAA8A6A4A19F9D9B99969492908D7E
:1001A0008B89868482807D7B79767472706E6D6BAC
:1001B000696866656362605E5D5B5A585755535265
:1001C000504F4D4C4A4847454442413F3D3C3A39E7
:1001D00038373634333231302E2D2C2B2A2927262E
:1001E000252322201F1D1C1A191716141311100E77
:1001F0000D0D0C0C0C0C0B0B0B0B0A0A0A0A0A094E
:100200000909090808080808080707070707060674
:100210000606060606060605050505050505050587
:100220000505050505050505050404040404040485
:10023000040404040403030303030302020202028E
:1002400002020101010101010101010000000000A1
:10025000000000000000000000000000000000009E
:10026000000000000000000081828384858687886A
:10027000898A8B8C8D8E8F90919293949596979876
:10028000999A9B9C9D9E9FA0A1A2A3A4A5A6A7A866
:10029000A9AAABACADAEAFB0B1B2B3B4B5B6B7B856
:1002A000B9BABBBCBDBEBFC0C1C2C3C4C5C6C7C846
:1002B000C9CACBCCCDCECFD0D1D2D3D4D5D6D7D836
:1002C000D9DADBDCDDDEDFE0E1E2E3E4E5E6E7E826
:1002D000E9EAEBECEDEEEFF0F1F2F3F4F5F6F7F816
:1002E000F9FAFBFCFDFEFF0000010203040506070E
:1002F00008090A0B0C0D0E0F101112131415161706
:1003000018191A1B1C1D1E1F2021222324252627F5
:1003100028292A2B2C2D2E2F3031323334353637E5
:1003200038393A3B3C3D3E3F4041424344454647D5
:1003300048494A4B4C4D4E4F5051525354555657C5
:1003400058595A5B5C5D5E5F6061626364656667B5
:1003500068696A6B6C6D6E6F7071727374757677A5
:1003600078797A7B7C7D7E7FFFFEFEFEFEFEFEFDC1
:10037000FDFDFDFDFDFCFCFCFCFCFCFCFBFBFBFBBC
:10038000FBFBFAFAFAFAFAFAF9F9F9F8F7F6F4F3E4
:10039000F2F1F0EFEDECEBEAE9E7E6E5DBD2C8BE1F
:1003A000B4AAA0978D83796F665C52483E3C3A3878
:1003B0003533312F2D2A282624221F1D1B191918E9
:1003C00018181817171717171616161615151515C6
:1003D00014141414131313131312121212111111F3
:1003E00011101010100F0F0F0F0F0E0E0E0E0D0D1F
:1003F0000D0D0C0C0C0C0B0B0B0B0A0A0A0A0A094C
:100400000909090808080808080707070707060672
:100410000606060606060605050505050505050585
:100420000505050505050505050404040404040483
:10043000040404040403030303030302020202028C
:10044000020201010101010101010100000000009F
:10045000000000000000000000000000000000009C
:1004600000000000000000000001030507090B0D5B
:100470000F11131517191B1D1F21232527292B2D9C
:100480002F31333537393B3D3F41434547494B4D8C
:100490004F51535557595B5D5F61636567696B6D7C
:1004A0006F71737577797B7D7F7D7B7977757371DC
:1004B0006F6D6B69676563615F5D5B59575553513C
:1004C0004F4D4B49474543413F3D3B39373533312C
:1004D0002F2D2B29272523211F1D1B19171513111C
:1004E0000F0D0B090705030100FFFDFBF9F7F5F3FD
:1004F000F1EFEDEBE9E7E5E3E1DFDDDBD9D7D5D3DC
:10050000D1CFCDCBC9C7C5C3C1BFBDBBB9B7B5B3CB
:10051000B1AFADABA9A7A5A3A19F9D9B99979593BB
:10052000918F8D8B8987858381838587898B8D8F3B
:1005300091939597999B9D9FA1A3A5A7A9ABADAFBB
:10054000B1B3B5B7B9BBBDBFC1C3C5C7C9CBCDCFAB
:10055000D1D3D5D7D9DBDDDFE1E3E5E7E9EBEDEF9B
:10056000F1F3F5F7F9FBFDFE000306090C0F121578
:10057000181B1E2124272A2D303336393B3E414398
:1005800046494B4E50525557595B5E6062646667F0
:10059000696B6C6E7071727475767778797A7B7B23
:1005A0007C7D7D7E7E7E7E7E7F7E7E7E7E7E7D7D70
:1005B0007C7B7B7A7978777675747271706E6C6BF0
:1005C0006967666462605E5B59575552504E4B498D
:1005D0004643413E3B393633302D2A2724211E1B0A
:1005E0001815120F0C09060300FDFAF7F4F1EEEBF3
:1005F000E8E5E2DFDCD9D6D3D0CDCAC7C5C2BFBDDE
:10060000BAB7B5B2B0AEABA9A7A5A2A09E9C9A9965
:1006100097959492908F8E8C8B8A89888786858512
:1006200084838382828282828182828282828383A5
:10063000848585868788898A8B8C8E8F9092949505
:1006400097999A9C9EA0A2A5A7A9ABAEB0B2B5B748
:10065000BABDBFC2C5C7CACDD0D3D6D9DCDFE2E5AB
:10066000E8EBEEF1F4F7FAFCFFF8F2EBE5DFD8D2B5
:10067000CCC5BFB9B2ACA59F99928E8A86817D798F
:1006800075706C68645F5B57534F4A4947464443F3
:1006900041403E3D3B3A383735343231302F2E2DF4
:1006A0002C2B2A292827262524232221201F1F1E00
:1006B0001E1E1D1D1C1C1C1B1B1A1A1A1919191889
:1006C00018181817171717171616161615151515C3
:1006D00014141414131313131312121212111111F0
:1006E00011101010100F0F0F0F0F0E0E0E0E0D0D1C
:1006F0000D0D0C0C0C0C0B0B0B0B0A0A0A0A0A0949
:10070000090909080808080808070707070706066F
:100710000606060606060605050505050505050582
:100720000505050505050505050404040404040480
:100730000404040404030303030303020202020289
:10074000020201010101010101010100000000009C
:100750000000000000000000000000000000000099
:100760000000000000000000000000002300260040
:10077000290000000000240027002A0000000000DB
:10078000250028002B0004040404040404040202CD
:100790000202020203030303030301020408102000
:1007A000408001020408102001020408102000000B
:1007B0000008000201000003040700000000000020
:1007C0000000B00811241FBECFEFD8E0DEBFCDBFC0
:1007D00011E0A0E0B1E0EAE7FBE102C005900D9274
:1007E000AC37B107D9F722E0ACE7B1E001C01D9208
:1007F000AC3AB207E1F713E0C2EED3E004C02197B0
:10080000FE010E94B00DC13ED107C9F70E94350913
:100810000C94BB0D0C94000080E090E0FC01E057CC
:10082000FE4F108211821282039680339105B1F738
:1008300008959091AB02691708F5813079F048F07E
:10084000823089F08330D1F48091A7029091A80280
:100850000EC08091A1029091A20209C08091A302D2
:100860009091A40204C08091A5029091A6020097E5
:1008700029F0FC01E60FF11D8081089580E00895C4
:10088000833081F028F4813099F08230A1F008950E
:100890008730A9F08830B9F08430D1F4809180009D
:1008A0008F7D03C0809180008F77809380000895B2
:1008B00084B58F7702C084B58F7D84BD0895809103
:1008C000B0008F7703C08091B0008F7D8093B0001F
:1008D00008951F93CF93DF93282F30E0F901E2555D
:1008E000F84F8491F901E656F84FD491F901EA578F
:1008F000F84FC491CC23C9F0162F81110E944004F7
:10090000EC2FF0E0EE0FFF1FE458F84FA591B491E3
:100910008FB7F894111105C09C91ED2FE095E92354
:1009200002C0EC91ED2BEC938FBFDF91CF911F9123
:100930000895CF93DF9390E0FC01E656F84F2491A1
:10094000FC01EA57F84F8491882361F190E0880F09
:10095000991FFC01EE58F84FC591D491FC01E45861
:10096000F84FA591B491611109C09FB7F89488819F
:10097000209582238883EC912E230BC0623061F492
:100980009FB7F8943881822F809583238883EC91D8
:100990002E2B2C939FBF06C08FB7F894E8812E2B87
:1009A00028838FBFDF91CF910895CF92DF92EF928E
:1009B000FF920F931F93CF93DF936C017A018B010A
:1009C000C0E0D0E0CE15DF0589F0D8016D918D0132
:1009D000D601ED91FC910190F081E02DC6010995C1
:1009E000892B11F47E0102C02196ECCFC701DF9163
:1009F000CF911F910F91FF90EF90DF90CF900895CE
:100A0000089580E090E00895FC01538D448D252FDA
:100A100030E0842F90E0821B930B541710F0CF9698
:100A2000089501970895FC01918D828D981761F0CA
:100A3000828DDF01A80FB11D5D968C91928D9F5F15
:100A40009F73928F90E008958FEF9FEF0895FC01C0
:100A5000918D828D981731F0828DE80FF11D858D73
:100A600090E008958FEF9FEF0895FC01918D228D06
:100A7000892F90E0805C9F4F821B91098F7399278B
:100A8000089580EC91E00E94350521E0892B09F45E
:100A900020E0822F0895FC01848DDF01A80FB11D95
:100AA000A35ABF4F2C91848D90E001968F739927A4
:100AB000848FA689B7892C93A089B1898C91806491
:100AC0008C93938D848D981306C00288F389E02D52
:100AD00080818F7D80830895EF92FF920F931F9303
:100AE000CF93DF93EC0181E0888F9B8D8C8D9813E1
:100AF00005C0E889F989808185FD24C0F62E0B8D1B
:100B000010E00F5F1F4F0F731127E02E8C8DE8123E
:100B10000CC00FB607FCFACFE889F989808185FF00
:100B2000F5CFCE010E944B05F1CF8B8DFE01E80F72
:100B3000F11DE35AFF4FF0820B8FEA89FB89808118
:100B4000806207C0EE89FF896083E889F989808126
:100B50008064808381E090E0DF91CF911F910F91BD
:100B6000FF90EF900895CF93DF93EC01888D882359
:100B7000C9F0EA89FB89808185FD05C0A889B9890A
:100B80008C9186FD0FC00FB607FCF5CF808185FFE5
:100B9000F2CFA889B9898C9185FFEDCFCE010E9453
:100BA0004B05E7CFDF91CF91089580E090E0892B4E
:100BB00029F00E94410581110C94000008959FE1E5
:100BC000981B892F93E0899FF0011124F595E795F3
:100BD000DF01BB27EF5FA057BE4F80FD10C0CB01E8
:100BE00024E0969587952A95E1F78C93F0E0E057FD
:100BF000FE4F80818F706295607F682B07C08C915B
:100C0000807F872B8C93F0E0E057FE4F6083089540
:100C10000E94B60D1F920F920FB60F9211242F93C0
:100C20003F938F939F93AF93BF9380918C0190914B
:100C30008D01A0918E01B0918F0130918B0123E045
:100C4000230F2D3720F40196A11DB11D05C026E804
:100C5000230F0296A11DB11D20938B0180938C015F
:100C600090938D01A0938E01B0938F0180918701A5
:100C700090918801A0918901B0918A010196A11DEE
:100C8000B11D8093870190938801A0938901B0934F
:100C90008A01BF91AF919F918F913F912F910F90BA
:100CA0000FBE0F901F9018951F920F920FB60F92C4
:100CB00011242F933F934F935F936F937F938F9361
:100CC0009F93AF93BF93EF93FF9380EC91E00E94CB
:100CD0004B05FF91EF91BF91AF919F918F917F91C4
:100CE0006F915F914F913F912F910F900FBE0F9099
:100CF0001F9018951F920F920FB60F9211242F93E9
:100D00008F939F93EF93FF93E091D001F091D101E6
:100D10008081E091D601F091D70182FD12C09081CF
:100D20008091D9018F5F8F732091DA01821751F082
:100D3000E091D901F0E0E054FE4F958F8093D90106
:100D400001C08081FF91EF919F918F912F910F9022
:100D50000FBE0F901F9018951F920F920FB60F9213
:100D600011248F939F93EF93FF932A9A5F9B0CC05C
:100D70005F9880917E01882321F0299A299810920A
:100D80007E012D9A2D9808C080917E01882321F044
:100D9000299A299810927E012A98809186018823A9
:100DA00081F0E0E9F1E080E38E0F91919EBD0DB4FA
:100DB00007FEFDCF8E13F9CF81E080937E01109264
:100DC0008601FF91EF919F918F910F900FBE0F9031
:100DD0001F9018951F920F920FB60F9211242F9209
:100DE0003F924F925F926F927F928F929F92AF92BB
:100DF000BF92CF92DF92EF92FF920F931F932F93A8
:100E00003F934F935F936F937F938F939F93AF9392
:100E1000BF93EF93FF93CF93DF9300D000D0CDB774
:100E2000DEB7809188009091890086509F4F909303
:100E300089008093880080910201811106C084E0BE
:100E40008093020121E02A8306C080910201815033
:100E5000809302011A828091000190910101E1E0EA
:100E6000E983892B21F0198280E293E005C080910B
:100E7000000190910101019790930101809300017D
:100E800080918501811110C080917C0190917D013C
:100E9000892B09F0E1C080917F01909180019093AE
:100EA0007D0180937C0129C18FE788BD1C821B8254
:100EB0008091810190E00B8002C0959587950A94FE
:100EC000E2F780FFC0C0FA81FF23A9F1E1E18B8145
:100ED0009C81E89FD001E99FB00D1124A35ABD4F1A
:100EE0001A968D919C911B9797FD23C01896ED91B2
:100EF000FC9119971C962D913C911D971A968D91F6
:100F00009C911B97820F931F1B969C938E931A970D
:100F1000880F892F881F990B9195E80FF91F8491ED
:100F20001E968C931E971A968D919C911B9797FFF6
:100F300002C01E961C92F981FF2309F44CC0E1E126
:100F40008B819C81E89F8001E99F100D1124035A39
:100F50001D4FF80166817781C680D780E284F384D3
:100F60002784308880E090E00E94A10C4B015C0156
:100F7000B60180E090E00E94A10C2B013C01B7017A
:100F800080E090E00E94A10C20E03FEF4FE75AE4A0
:100F90000E94000C9B01AC01C301B2010E942F0D05
:100FA0006B017C01B1017250072E000C880B990B6C
:100FB0000E94A30C9B01AC01C701B6010E942F0D3A
:100FC0009B01AC01C501B4010E94940B0E94720CFC
:100FD000F80175836483E1E18B819C81E89FD001F6
:100FE000E99FB00D1124A35ABD4F14968D919C9189
:100FF000159712962D913C911397820F931F13967C
:101000009C938E9312971E968C911E97882399F02D
:101010008D919C9111971296ED91FC911397EF2F62
:10102000FF27E80FF91F24911E963C912303F0013E
:1010300011248F2F01C080E028B5082E000C990BD9
:10104000820F911D88BD8B819C8101969C838B832F
:10105000049709F02DCF18CF20917C0130917D01AC
:1010600080917F01909180019695879596958795BF
:101070002817390709F441C0E0917C01F0917D0106
:1010800080917F019091800123E030E0B9010E94BE
:101090009C0DE617F70789F140917C0150917D0185
:1010A00080917F0190918001969587954817590707
:1010B00021F1E0917C01F0917D0180917F0190917F
:1010C0008001B9010E949C0D660F771FE617F70794
:1010D000A1F020917C0130917D0180917F01909160
:1010E00080019695879596958795AC01440F551F7D
:1010F000840F951F2817390719F481E08093820126
:1011000080917C0190917D01019790937D01809366
:101110007C010F900F900F900F90DF91CF91FF9176
:10112000EF91BF91AF919F918F917F916F915F915F
:101130004F913F912F911F910F91FF90EF90DF9072
:10114000CF90BF90AF909F908F907F906F905F9067
:101150004F903F902F900F900FBE0F901F901895BB
:101160001092C3011092C20188EE93E0A0E0B0E0BB
:101170008093C4019093C501A093C601B093C701A9
:101180008DE691E09093C1018093C00185EC90E0E1
:101190009093CD018093CC0184EC90E09093CF01AB
:1011A0008093CE0180EC90E09093D1018093D001A8
:1011B00081EC90E09093D3018093D20182EC90E097
:1011C0009093D5018093D40186EC90E09093D70161
:1011D0008093D6011092D9011092DA011092DB01AE
:1011E0001092DC01EDE5F2E0A0E0B0E86AE070E02A
:1011F0004FEF28EE33E084EF91E011861086B3873D
:10120000A287758764874687108A178611821082A5
:10121000138212823583248397838683719652E0EA
:10122000E13AF50751F789E091E09093A2028093AB
:10123000A10281E291E09093A4028093A30289E34A
:1012400091E09093A6028093A50281E591E09093AE
:10125000A8028093A70285E091E09093AA02809370
:10126000A9028CE08093AB020895789484B58260E3
:1012700084BD84B5816084BD85B5826085BD85B53A
:10128000816085BD80916E00816080936E001092B8
:101290008100809181008260809381008091810033
:1012A00081608093810080918000816080938000C4
:1012B0008091B10084608093B1008091B000816022
:1012C0008093B00080917A00846080937A0080914E
:1012D0007A00826080937A0080917A0081608093A6
:1012E0007A0080917A00806880937A001092C10021
:1012F000D2E0D093810080916F00826080936F0074
:1013000083EB84BDC1E0C5BD8FE787BD88BD559A1D
:10131000259A549A579A219A229A239A2D985C9842
:101320005F9A29982A9AC093860180E58CBDCDBD2D
:10133000D093B00087E08093B10083E08093B30046
:10134000809170008260809370000E940C047894F9
:1013500060E08CE00E94990461E086E00E949904BC
:1013600061E087E00E949904E091D001F091D10101
:10137000D083E091CC01F091CD011082E091CE01BB
:10138000F091CF018FEC80831092D801E091D401CD
:10139000F091D50186E08083E091D201F091D301F4
:1013A000808180618083E091D201F091D3018081BE
:1013B00088608083E091D201F091D30180818068C0
:1013C0008083E091D201F091D30180818F7D808371
:1013D00080EA9FE09093800180937F0110928401C6
:1013E000C09385018FEF8093810128E636E04FB7E7
:1013F000F89488E695E090935E0280935D023093C6
:1014000066022093650284E190E090936A028093E3
:10141000690265EF70E070936402609363026CE2AE
:1014200071E070936D0260936C024FBF4FB7F894F8
:1014300068E674E070936F0260936E0230937702F7
:101440002093760290937B0280937A028FEF97E04D
:10145000909375028093740280E092E090937E02F4
:1014600080937D024FBF8FB7F89428E632E0309327
:10147000800220937F0228E633E030938802209395
:10148000870228E230E030938C0220938B022CEC10
:1014900034E0309386022093850228EE33E03093C7
:1014A0008F0220938E028FBF8FB7F89428E630E02A
:1014B000309391022093900228E631E03093990214
:1014C000209398022FEF33E030939D0220939C02EB
:1014D00023E333E1309397022093960228E833E127
:1014E0003093A00220939F028FBF0AEB17E036EAE9
:1014F000E32E37E0F32E42E9C42E47E0D42E51E12B
:10150000A52E809186018111DEC0F89461E087E00C
:101510000E94690460E086E00E94690461E086E060
:101520000E946904C7E0D0E0B12C61E087E00E942E
:101530006904F8018491F7018490F6019490992050
:1015400099F081110E944004892D90E0880F991F25
:101550008859984FFC01A591B4918C91882231E073
:1015600009F430E0832F02C080E090E00C2E01C02F
:10157000880F0A94EAF7B82A60E087E00E946904BD
:10158000219798F64B2D50E07894209103013091EB
:101590000401209530956091840180E090E0F9018C
:1015A000E423F523082E02C0F695E7950A94E2F7A6
:1015B000E0FF4EC07091AB02871708F049C0613060
:1015C000A9F028F0623011F1633089F141C0E09157
:1015D000A102F091A202E80FF91F7081711137C0CA
:1015E000A091A902B091AA027C911FC0E091A30230
:1015F000F091A402E80FF91F7081711128C0A09129
:10160000A902B091AA0211967C910FC0E091A502A7
:10161000F091A602E80FF91F7081711118C0A09116
:10162000A902B091AA0212967C91708311C0E09138
:10163000A702F091A802E80FF91F7081711107C08D
:10164000A091A902B091AA0213967C91EECF1082CC
:1016500001968830910509F0A2CF50930401409380
:1016600003010E940C04C0E0D0E08091AB0290E046
:10167000C817D9072CF580918501882399F08091AE
:10168000830190E06C2FC817D90769F48091840119
:101690000E941904882319F060E070E00CC060E03B
:1016A00074E009C06C2F809184010E941904882382
:1016B00029F06FEF7FE08C2F0E94DF052196D5CFB8
:1016C00081E08093860180918501882349F1809192
:1016D0008201882329F110928201C0918301812C1B
:1016E000912C6C2F882D0E941904882349F0A89C06
:1016F000F001A99CF00D1124E35AFD4F13861286C8
:101700008FEF881A980AE4E08E16910451F7CF5FA4
:10171000C09383018091AB02C81302C01092830171
:101720000E94D505EECE5058BB27AA270E94AB0BCE
:101730000C94F50C0E94E70C38F00E94EE0C20F09F
:1017400039F49F3F19F426F40C94E40C0EF4E09560
:10175000E7FB0C94DE0CE92F0E94060D58F3BA1734
:10176000620773078407950720F079F4A6F50C94B7
:10177000280D0EF4E0950B2EBA2FA02D0B01B90108
:1017800090010C01CA01A0011124FF27591B99F0F7
:10179000593F50F4503E68F11A16F040A22F232F03
:1017A000342F4427585FF3CF469537952795A79553
:1017B000F0405395C9F77EF41F16BA0B620B730BFA
:1017C000840BBAF09150A1F0FF0FBB1F661F771F6B
:1017D000881FC2F70EC0BA0F621F731F841F48F420
:1017E000879577956795B795F7959E3F08F0B0CFA9
:1017F0009395880F08F09927EE0F97958795089590
:101800000E94140C0C94F50C0E94EE0C58F00E94EF
:10181000E70C40F029F45F3F29F00C94DE0C5111E5
:101820000C94290D0C94E40C0E94060D68F3992386
:10183000B1F3552391F3951B550BBB27AA276217CC
:101840007307840738F09F5F5F4F220F331F441FD9
:10185000AA1FA9F335D00E2E3AF0E0E832D091500D
:101860005040E695001CCAF72BD0FE2F29D0660FFA
:10187000771F881FBB1F261737074807AB07B0E83D
:1018800009F0BB0B802DBF01FF2793585F4F3AF043
:101890009E3F510578F00C94DE0C0C94290D5F3FAF
:1018A000E4F3983ED4F3869577956795B795F795C9
:1018B0009F5FC9F7880F911D9695879597F90895B1
:1018C000E1E0660F771F881FBB1F6217730784074D
:1018D000BA0720F0621B730B840BBA0BEE1F88F75C
:1018E000E09508950E940E0D88F09F5798F0B92F4B
:1018F0009927B751B0F0E1F0660F771F881F991F45
:101900001AF0BA95C9F714C0B13091F00E94280DB1
:10191000B1E008950C94280D672F782F8827B85FC1
:1019200039F0B93FCCF3869577956795B395D9F79C
:101930003EF490958095709561957F4F8F4F9F4FA6
:101940000895E89409C097FB3EF4909580957095B2
:1019500061957F4F8F4F9F4F9923A9F0F92F96E9FB
:10196000BB279395F695879577956795B795F11170
:10197000F8CFFAF4BB0F11F460FF1BC06F5F7F4F0D
:101980008F4F9F4F16C0882311F096E911C077231F
:1019900021F09EE8872F762F05C0662371F096E828
:1019A000862F70E060E02AF09A95660F771F881FF7
:1019B000DAF7880F9695879597F9089597F99F67B5
:1019C00080E870E060E008959FEF80EC08950024C7
:1019D0000A941616170618060906089500240A9494
:1019E00012161306140605060895092E0394000C1A
:1019F00011F4882352F0BB0F40F4BF2B11F460FFA9
:101A000004C06F5F7F4F8F4F9F4F089557FD9058D1
:101A1000440F551F59F05F3F71F04795880F97FBB2
:101A2000991F61F09F3F79F087950895121613066C
:101A30001406551FF2CF4695F1DF08C0161617069B
:101A40001806991FF1CF86957105610508940895D0
:101A5000E894BB2766277727CB0197F908950E9462
:101A6000420D0C94F50C0E94E70C38F00E94EE0C2D
:101A700020F0952311F00C94DE0C0C94E40C11244E
:101A80000C94290D0E94060D70F3959FC1F3950FDC
:101A900050E0551F629FF001729FBB27F00DB11DF2
:101AA000639FAA27F00DB11DAA1F649F6627B00D82
:101AB000A11D661F829F2227B00DA11D621F739F6B
:101AC000B00DA11D621F839FA00D611D221F749F79
:101AD0003327A00D611D231F849F600D211D822FC0
:101AE000762F6A2F11249F5750409AF0F1F08823E7
:101AF0004AF0EE0FFF1FBB1F661F771F881F915014
:101B00005040A9F79E3F510580F00C94DE0C0C94D8
:101B1000290D5F3FE4F3983ED4F38695779567955A
:101B2000B795F795E7959F5FC1F7FE2B880F911D3D
:101B30009695879597F90895AA1BBB1B51E107C09D
:101B4000AA1FBB1FA617B70710F0A61BB70B881F4D
:101B5000991F5A95A9F780959095BC01CD010895DC
:101B6000EE0FFF1F0590F491E02D099481E090E0C5
:0A1B7000F8940C94BB0DF894FFCF1D
:101B7A00200304FFFF64640A0164000000000000FF
:101B8A0000000000006400000000000000000000E7
:101B9A0000000000000000640000000000000000D7
:101BAA00000000000000000000000000000000002B
:101BBA00000000000000000000000000000000001B
:101BCA000000000001000000000001000000000009
:101BDA00010000000000010000000000006C05D5B3
:0C1BEA00040405B30535051305270500AC
:00000001FF
